:02000002D0002C
:1040000000400D0038C30D00000006000C00050143
:08401000040115050000000089
:1040180004B00D0009480A49884208B505D0094A84
:10402800824202D0121A06F025FB0748074A0021EF
:10403800121A06F02AFB014808BD00BF6CDB0320FA
:1040480040C20D003CDC03203CDC0320F0E70320E9
:1040580070B505F083FB074C074BE41AA40800254C
:104068001E46A54204D056F8253098470135F8E792
:1040780070BD00BF3CC20D0088C10D0001F0E2B860
:1040880008B500F05BFCBDE8084005F035BB03F05F
:104098007FBE03F085BE03F083BE000008B5034A67
:1040A80000210C2003F098FDFEE700BF71780D0099
:1040B8000078B0FA80F04009704701230370704718
:1040C80070470000034B01221A60034B00221A605C
:1040D800704700BF90DC0320BCDD0320036818474D
:1040E800012A02D0022A02D004E0016002E00B6833
:1040F80000B1036000207047704710B501230374B6
:104108008368044613B1C068984707E0006828B17F
:1041180083680BB905F03BFCC368984701236374B7
:104128000020BDE8104003F08FBB000010B5064C1E
:10413800204604F065FD05F05DFA2368034A012175
:10414800BDE8104004F02CBC24E303207BB00D0034
:1041580010B5044B044640F81C3B03F091F8204688
:1041680010BD00BFB8BB0D0010B5034B036004467B
:1041780002F018FB204610BD20B00D0010B5044613
:10418800FFF7F2FF204640F24C5105F0E6FB2046CF
:1041980010BD10B58368044613B103220146984741
:1041A800204610BD38B5044670B1056835B12846BB
:1041B800FFF7EFFF1021284605F0CFFB204614211A
:1041C800BDE8384005F0C9BB38BD10B503680446E2
:1041D800BBB1586803F008FB78B923685A7C12B958
:1041E800586803F011FB2368586803F015FB206832
:1041F8000023236028B1FFF7D5FF206808B1FFF737
:10420800D1FF204610BD00002DE9FF4106460F46AC
:1042180014202A491546984605F0AAFB044630B1F1
:1042280000230374036043608360C3604374346095
:10423800002C39D02149102005F09AFB0346B0B173
:104248000022826095E8030002AA82E8030093E84E
:10425800030085E8030092E8030083E803009968F7
:10426800AA68A9609A60EA68D968E960DA6025688E
:10427800236035B12846FFF78CFF1021284605F04A
:104288006CFB306803687BB10A9B42468DE80900E5
:1042980039460B4B043003F09FFA28B933681B7C6E
:1042A80043B903F0A9FAF9E730680023336008B18D
:1042B800FFF778FF304604B0BDE8F08184BF0D00F9
:1042C80003410D0008B503F0DFFA034B1860BDE8A1
:1042D800084003F0DDBC00BFE8E6032003682BB10B
:1042E8004268934202D2184606F0B6B800207047DA
:1042F80038B50568044645B143689D4205D228464D
:1043080006F021FA013005442560204638BDF7B58E
:1043180091E828001D448DE82800044616466F469B
:10432800009BAB420AD226B997E8030084E8030051
:1043380007E03846FFF7DCFF013EF1E70023236082
:104348006360204603B0F0BDF8B504460F464668E2
:1043580021B90368721C42609955F8BD084606F0F9
:10436800F2F9A368451CAA199A4208D820682A4677
:104378003946304406F07EF963681D446560F8BD2F
:1043880070B504464068A6682568054A0B46311A88
:10439800284403F02DFD636801301844606070BD47
:1043A80088B00D0070B504464068A6682568054ABF
:1043B8000B46311A284403F01BFD6368013018448A
:1043C800606070BD8BB00D0038B5054608460C46D8
:1043D80006F0B9F9214602462846BDE8384002F001
:1043E80012BA000070B58CB00D46064626496846DC
:1043F800144604F0B3FB284604F0C0FF001B002855
:10440800284604DA04F0BAFF021B18320DE004F063
:10441800B5FF001B1828284604DD04F0AFFF021B77
:10442800183A02E004F0AAFF021B08A8174904F092
:104438004DFC08A9684604F0DBFB08A804F047FB1C
:10444800284604F0A3FF1149024604A804F03EFCE4
:10445800694608A804F0C1FB0D4908A804F011FC3E
:1044680004A904F002FC0146304604F0B6FB08A893
:1044780004F02DFB04A804F02AFB684604F027FB8F
:1044880030460CB070BD00BF08BD0D008FB00D00E8
:1044980094B00D00542809D8A0EB8001013900EB35
:1044A80040000022C9B2C0B203F039B9A9280BD81C
:1044B8005538C0B200EB4002A0EB80000138D2B200
:1044C8000021C0B203F02BB95630C1B2A1EB810272
:1044D800013A01EB4101D2B2C9B2002003F01FB981
:1044E80070B50646002500240E4803F01DF98442E5
:1044F8000BD26019C0B2FFF7CDFF21460246013446
:10450800084803F0C1F8A4B2EEE70648013502F006
:1045180019FFADB2304603F093FCB5F5807FE2D1C8
:1045280070BD00BF34DD032010B50868074C05F0E6
:1045380093FF4FF47A735843206005F05BF82168C5
:104548000A22BDE8104004F021BA00BF78DB03203E
:1045580038B50C4605F04EF80546206805F07CFF96
:104568000A220146284604F011FA206805F074FF73
:10457800034B012816BF002218601A6038BD00BF1F
:10458800BCDD032038B50C4605F034F80546206834
:1045980005F062FF0A220146284604F0F7F9206870
:1045A80005F05AFF034B012816BF002218601A6055
:1045B80038BD00BF20E3032008B5086805F04CFFAC
:1045C800014B186008BD00BF74DB032013B500223F
:1045D80068460C46FFF79BFE6846FFF77FFE0C4BCC
:1045E8002146186001226846FFF791FE6846FFF7EA
:1045F80075FE084B0222186021466846FFF787FEC1
:104608006846FFF76BFE044B186002B010BD00BF90
:1046180070DB03206CDB03207CDB032008B5086813
:1046280005F01AFF01380D2847D8DFE800F0070B1E
:104638000F13171B1F24292E33383D421F4B072207
:104648001A6008BD1D4B06221A6008BD1B4B0522C7
:104658001A6008BD194B04221A6008BD174B0322C3
:104668001A6008BD154B00221A6008BD134B4FF0A5
:10467800FF321A6008BD114B6FF001021A6008BDC5
:104688000E4B6FF002021A6008BD0C4B6FF003026C
:104698001A6008BD094B6FF007021A6008BD074B86
:1046A8006FF008021A6008BD044B6FF009021A6027
:1046B80008BD024B6FF00B021A6008BD80DB0320B7
:1046C8002DE9F041924B934D1E68012E5AD1924C20
:1046D800206805F00BFC8CA3D3E9002305F0A8FAA9
:1046E80005F06AFE2B68206001333C2B2B6032D129
:1046F8008A4F8B483B6801333B60002323600024CA
:1047080021462C6002F0A0FC22463146844802F083
:1047180018F80A223968824804F036F9814802F00C
:1047280011FE4FF4FA7003F08BFB21467C4802F02F
:104738008BFC224621467A4802F003F87A497848E9
:1047480004F0B0F8774802F0FDFD4FF4FA70BDE8C8
:10475800F04103F075BB0021714802F075FC314649
:1047680000226F4801F0EDFF29686D480A2204F025
:104778000BF96C4802F0E6FD4FF47A70BDE8F041A1
:1047880003F05EBB2B68654F684C1BB93E68002E72
:1047980000F0918000216248DFF8908102F054FC1B
:1047A800002201215E4801F0CCFF0A2239685C48EA
:1047B80004F0EAF85B4802F0C5FD4FF4FA7003F024
:1047C8003FFB574801F0C5FF2D26206000215448C3
:1047D80002F03AFC0022B4F90010514801F0B1FF90
:1047E80053494F4804F05EF82368013B23602433A3
:1047F8000DDA4B4801F0ADFFFF21C8F80000002298
:10480800502002F02DFD0146454801F09DFF454826
:1048180002F098FD322003F013FB013ED6D1314659
:104828003F48DFF8088102F00FFC324601213C487E
:1048380001F087FF0A222968394804F0A5F83948A9
:1048480002F080FD4FF4FA7003F0FAFA344801F0F0
:1048580080FF2D2620600021314802F0F5FB002260
:10486800B4F900102E4801F06CFF32492C4804F0CE
:1048780019F82368013B236024330DDA284801F036
:1048880068FFFF21C8F800000022502002F0E8FC71
:104898000146234801F058FF224802F053FD322018
:1048A80003F0CEFA013ED6D11B4B2E6000223E60AB
:1048B8001A60BDE8F0813146194802F0C5FB32465E
:1048C800B4F90010164801F03CFF1B49144803F0E6
:1048D800F0FF2368013B236024330CDA104801F011
:1048E80038FFFF2120603246502002F0B9FC014613
:1048F8000B4801F029FF0B4802F024FD6420BDE8B5
:10490800F04103F09DBA00BF7B14AE47E17A843FC3
:1049180020E30320C0DD032074DC032040DC0320F7
:1049280098DC0320B4DC032096B00D00DCDC032007
:1049380098B00D00A0B00D00A8B00D004FF0FF30EA
:1049480003F07EBA38B5046805467CB16368013B5C
:1049580063605BB9236820469B689847A368013B5E
:10496800A3601BB923682046DB689847284638BDF2
:1049780030B51E4D95B02B781D498DF800300022BA
:104988003C2304A803F0B6FB05A8FFF7DBFF4FF4B0
:104998007A6003F055FA174C174B18491A682378B0
:1049A8008DF8003004A83C2303F0A4FB05A8FFF70A
:1049B800C9FF4FF47A6003F043FA114B114A1B68A0
:1049C8001268114904A803F0FBF923788DF8003028
:1049D80004AA3C230D4902A803F08CFB03A8FFF7A7
:1049E800B1FF42F2107003F02BFAC4E75CDD03203C
:1049F800B2B00D0054DC032024E303209AB10D006B
:104A080080DC032010E30320C5B00D00AEB10D001B
:104A180010B5044B044640F8183BFFF793FF2046B7
:104A280010BD00BF6CBE0D0073B50E46044615469A
:104A380001F01AFF01AB01463246204602F01CF88D
:104A480020B12A460199204601F0F8FF02B070BD56
:104A580073B51548FFF7B8FC134802F006FAE0B141
:104A6800124C134D1349144E0F482246FFF7DCFF32
:104A78002A4612490C48FFF7D7FF324610490A4820
:104A8800FFF7D2FF04F0B6FD336801932B6800935B
:104A98000C4A2368012103F083FF034802B0BDE8F4
:104AA800704001F0CEBE00BFC4DD032054E30320F4
:104AB800ACDD0320CBB00D0060DD0320D8B00D00C5
:104AC800E6B00D00F1B00D0037B51148FFF77CFCDA
:104AD8000F4802F0CAF9A0B10E4C0F4D0F490C480F
:104AE8002246FFF7A1FF2A460D490948FFF79CFF18
:104AF80004F080FD2B6800930A4A2368012103F023
:104B08004FFF034803B0BDE8304001F09ABE00BF34
:104B1800C4DD032010E3032080DC032030B10D0046
:104B280039B10D0043B10D0008B500234377006883
:104B380004F012FBBDE8084002F050BA2DE9F0413C
:104B48008E188EB0B14280460D46174605910696DE
:104B580080F01E810B88ADF8123005A8FFF7C8FB5E
:104B680003689E4240F2148105980378412B13D1C3
:104B7800013005F071FC052801DDFF2410E00598DF
:104B8800013005F069FC0028F7DB0598013005F0D5
:104B980063FC0E30C4B203E005A8FFF79FFBC4B264
:104BA800BDF8123047F27622934200F0B5800DD856
:104BB80047F2612293427BD047F26422934250D05D
:104BC80046F67052934240F0D28034E047F2647265
:104BD800934258D047F27672934200F0AE8047F283
:104BE8006172934240F0C38083E00378412B33D154
:104BF800013005F031FC052821DDFF2405A8FFF769
:104C080077FB059D6449284605F070FD014600289C
:104C180000F0BA806149284605F068FD002800F0D8
:104C2800B2805F49284605F061FD002800F0AB809E
:104C380005A8FFF75DFB05988642D6D8A8E0059839
:104C4800013005F009FC0028D7DB0598013005F094
:104C580003FC0E30C4B2D1E705A8FFF73FFBC4B28E
:104C6800CCE70AAB079307A8102300254D49099301
:104C78000895FFF769FB07A82146FFF781FB204647
:104C880004F0D4FD25E005A8FFF732FB03689E4237
:104C98007ED9A4B20121204604F09EFD05A8FFF7A5
:104CA8001DFB011C18BF0121204604F0A6FD6FE082
:104CB8000AAB07933C49102307A8002509930895D8
:104CC800FFF742FB07A82146FFF75AFB204604F0EE
:104CD800C0FD014607A8FFF765FB089B0295013B4D
:104CE80000930195079B2A461421404600F09CFB3F
:104CF8004EE005A8FFF7FCFA03689E4248D9A4B223
:104D08000121204604F068FD05A8FFF7E7FA0146EF
:104D1800204604F0B5FD3BE00EAD204605F8104DE9
:104D280002F05EF90346284623B1204A934201D097
:104D380098472DE002F050F92AE005A8FFF7D8FAC5
:104D4800059B0A935D1B7D1B20460B950C958DF8E2
:104D58001C4002F04FF903460AA907A823B1144AD8
:104D6800934201D0984713E002F037F910E000238E
:104D780002210091B8F81A2002930193194640467F
:104D880000F052FB04E00121204604F025FD4FE726
:104D98000EB0BDE8F08100BF51B10D0054B10D0057
:104DA80058B10D005CB10D005FB10D00E16F0D0051
:104DB800E36F0D002DE9F0418EB004AF05460522E2
:104DC80007F10C01006803F06DFE002800F0238154
:104DD800052801D0002023E1B7F80D20B7F80F40CF
:104DE800130A43EA0222230A43EA042492B2A4B231
:104DF800A7F80D20A7F80F40002AEBD03B7BF3B9AA
:104E080002F0E6F86B7FE860B7F80F209BB9B7F8B7
:104E18000D1001290FD1042A01D0C82ADAD10124A2
:104E280068616C77284600F0B9FBFFF74BFA02F08F
:104E3800D5F82046F4E0501F18BF0120F0E0B4F583
:104E4800806F04D92846FFF76FFE0120E8E004F1DF
:104E5800080323F00703E846ADEB030D04AE224632
:104E68003146286803F01EFE84424FF0000440F0EB
:104E7800CD80B7F80F30F45402F0AAF83B7BE86015
:104E8800112B7AD006D8062B25D00F2B67D0022BF2
:104E980009D0B6E0292B2BD0372B00F0B980142B82
:104EA80040F0AF805BE06B7F43B901236B77284606
:104EB80000F074FBFFF706FA02F090F80023C8210F
:104EC800B7F80D200091284602930193194600F087
:104ED800ABFA01209DE0C823B7F80D2000932846BF
:104EE800029401942346214600F09EFA012090E0A6
:104EF800AB681BB9202002F04BFFA860B7F80F4041
:104F0800FE613444A6423C6201D3002081E02022A5
:104F18003146A86805F034FC07F11C00FFF7E8F9F2
:104F28000368A34207D2F86918B13B6A984274D360
:104F3800002084B200E05024286804F00DF92B68A2
:104F4800AA685A631C8700236B7702F041F8A0F522
:104F58009C5008382861E8606861012059E0FB68C6
:104F6800B7F80F20C3F30F236B8328463146FFF7AA
:104F7800E5FD00236B8301204BE0B7F80F303C714F
:104F880033449E427E61BB6142D23068B86007F10B
:104F98001400FFF7ADF97A69B7F80F30FA61961B7C
:104FA8009E1B214ABB683E6293427E621DD00BD88D
:104FB80002F1FD3202F10222934229D107F11C01CC
:104FC800381D02F00AF823E0184A934213D002F180
:104FD8009F6202F5003202F58072934218D107F100
:104FE8001C01381D01F0F9FF12E007F11C01381D02
:104FF80001F0F3FF0CE007F11C01381D01F0EDFF93
:1050080006E02846FFF790FD012002E0204600E078
:105018000120C54604E0012002E005F021FA88E7F6
:105028002837BD46BDE8F0817274630061636F6E16
:105038002DE9F04104468AB00D46FFF743F9637F36
:10504800022B00F0A080237F628B0133DBB2237731
:10505800002A41D1022B3FD8206803F08EFE40B1D0
:10506800002D40F09280206804F08EF8002800F3AC
:105078008C8001F0ADFF0646206803F07EFE677F56
:10508800012F05462AD120B966612046FFF74CFD5D
:1050980075E0E36844F63822F31A934204D92046AF
:1050A800FFF742FD00256AE042F21072934203D8EE
:1050B8002369F31A93420FD9636940F6B832F31A99
:1050C800934209D900230293019300931A460621BB
:1050D800204600F0A9F96661012550E0002FFBD1B8
:1050E800626950B1B61A40F6B8339E42F4D92068C6
:1050F80004F032F83D46677741E0B21A41F288334E
:105108009A42E9D9206804F027F8D4F800E0DEF8DC
:1051180034C0BEF83880BCF1000F09D02B46424697
:105128006146704603F056FE421E5542554111E055
:105138001E4B04930EF120070FCF05AD0FC53B683A
:105148002B704246634604A9704603F088FF431E4D
:105158005D425D410DB9666111E0676801262683ED
:10516800384605F0F0FA00238DE80900029332462C
:105178003B460221204600F057F923696361237FEB
:10518800013B23770EE000250CE02046FFF712FED6
:10519800054600287FF467AF206803F0DDFF01F0C3
:1051A8001DFFECE728460AB0BDE8F081E8BC0D0019
:1051B8002DE9F04114468CB00546043440F6B83069
:1051C8000F46984601F002FF0FCC01AE0FC62368C8
:1051D8006F60337001F0FCFEA0F59C50083801AFF9
:1051E8002861E86068610FCF07AE0FC63B6833706F
:1051F80007AF0FCF2C684FF0000EC4F834E0A4F8C6
:10520800388020340FC43368237042F2273674463E
:10521800286803F0A1FF6C7701F0DAFE07466B7F80
:10522800012B09D001F0D4FEC01BB04204D80021E4
:105238002846FFF7FDFEF2E76B7F012BE8D10CB0A3
:10524800BDE8F08170B58AB004F0D4F94FF4165176
:1052580004F0C4F90C215B4800F061FF00B9FEE7D7
:105268004FF47A7002F0ECFD01215648564E574D26
:1052780000F018FF0121102004F0AEFA04F0BAF98A
:10528800534903F026FB534802F025F80021524801
:1052980001F05DFA1E214F4802F048FA0022FF2172
:1052A800502001F0DDFF01464B4801F04DFA4B4814
:1052B80002F011F800214A4801F049FA1E21474836
:1052C80002F034FA0022FF21502001F0C9FF014604
:1052D800434801F039FA4349434801F073FE7C23FF
:1052E800009363229623A72104A8002403F084F9DD
:1052F80041F6907304AA3D493D48FFF759FF012341
:1053080022463C49019400943B4802F0D9FC2346CC
:1053180022463A4901940094394802F0D1FC2346C8
:105328002246384901940094374802F0C9FC374BAB
:1053380004934FF44063009304AA02233449079668
:1053480003A80695FEF760FF324B039A186803948A
:105358001A6008B1FEF726FF03A8FEF736FF04A877
:10536800FEF717FF2C4B04934FF44063009304AAF5
:1053780002232A49079603A80695FEF745FF00234E
:10538800039A0393264B18681A6008B1FEF70AFFC0
:1053980003A8FEF71AFF04A8FEF7FBFE012113205D
:1053A80004F01AFA0121122004F016FA0121022051
:1053B80004F012FA1B4801F08EFF1A4801F0C2FFF0
:1053C8000AB070BD48DD0320E5400D00E9400D003E
:1053D80062B10D00B4DC032098DC032000DD03205B
:1053E800E4DC0320CD400D0048DC03206BB10D0048
:1053F80034E3032035410D00B2B00D00D14A0D0051
:105408008CB10D00594A0D00A0B10D0079490D006D
:10541800B7B10D0058DC032079580D00BCB10D0060
:10542800E0DC032034DD03202DE9F04F83B000AF2A
:10543800044600683D6B894616469B46EA4603F0DB
:105448009CFC002860D019F0FD0F00F09E80B9F197
:10545800060F00F09A80637F012B55D116B9668B31
:10546800002E53D0A9F10C03082B57D97A6BBBF146
:10547800000F14BFA8464FF00008002ABA6B08F1C5
:10548800050314BF90464FF00008984408F107033D
:1054980023F00703AA18ADEB030DC2F3072376BA6E
:1054A80043EA0223C7F804D08DF80090ADF80160F4
:1054B800ADF80330BBF1000F4FD0002D4DD02A4678
:1054C80059460DF1050005F0D5F8681D7B6B002BDA
:1054D80045D1002545454ED2C5EB08027B682068BA
:1054E800B2F5806F28BF4FF48062591903F02FFC82
:1054F8000646002001F06AFD002E3AD1206803F02C
:105508002BFE667701F06AFDD54642E0238B013316
:105518009BB203B901232383268BA3E7E36822699F
:10552800934238BF134603F1420801F051FDC0EB26
:10553800080000280ADB00212046FFF779FD01F06A
:1055480047FDC0EB08000028F5DA8FE7217F002926
:105558008CD12046FFF76CFD88E70520B6E7BB6BCA
:10556800002BB6D01A467B68796B184405F082F890
:10557800AFE73544AEE703D02046FFF7D5FAC3E7D7
:1055880001F026FD2061D54603E0002E7FF46EAFC2
:1055980065E70C37BD46BDE8F08F00001FB5002257
:1055A8004923009302920192034B1121FFF73CFF1C
:1055B80005B05DF804FB00BF30B00D00F0B5ADF2EA
:1055C800244D08AB002405460F46059305A84FF463
:1055D80080630E49079316460694FEF7B5FE3946D2
:1055E80005A8FEF7CDFE314605A8FEF7C9FE069BC5
:1055F8000294013B00930194059B224614212846FE
:10560800FFF712FF0DF2244DF0BD00BFC3B10D002E
:1056180030B5ADF2244D08AB00240546059305A826
:105628004FF4806307930694FEF78EFE069B029460
:10563800013B00930194059B22460E212846FFF763
:10564800F3FE0DF2244D30BD70B57E4B196801296B
:105658001D4640F08D8000227B487C4CFFF7AEFF52
:105668007B497948FFF7D4FF7A4801F072F836266B
:1056780020600021774801F0E7FC0022B4F900100F
:10568800744801F05EF84FF4FA7240F6495112205E
:1056980003F0B6FE4FF4FA7240F6E961132003F006
:1056A800AFFE4FF4FA7240F6E961122003F0A8FE4B
:1056B8004FF4FA7240F64951132003F0A1FE4FF45B
:1056C800FA7240F68821022003F09AFE4FF4FA722B
:1056D80040F2D241022003F093FE5F495D4803F097
:1056E800E8F82368013B236024330DDA594801F0B8
:1056F80030F8564BFF2118600022502001F0B0FD11
:105708000146544801F020F84FF4FA7240F6495126
:10571800122003F075FE4FF4FA7240F6E961132087
:1057280003F06EFE4FF4FA7240F6E961122003F0BE
:1057380067FE4FF4FA7240F64951132003F060FEF9
:105748004FF4FA7240F68821022003F059FE4FF414
:10575800FA7240F2D241022003F052FE3F4801F0B3
:10576800F1FD642002F06CFB013E82D12E6070BD19
:105778003B4B1B68012B3BD13A4B344E1C68002C29
:105788005FDD394801F012FC4FF47A7503F032FFFF
:1057980094FBF5F50A22294603F0F8F800212D4874
:1057A80001F052FC002202212A4800F0CAFF0A2216
:1057B8002946284803F0E8F83368013B336024336E
:1057C8000CDA244800F0C5FFFF2130600022502089
:1057D80001F046FD01461F4800F0B6FF1F4801F0E2
:1057E800B1FD4FF47A7002F02BFBA4F57A74C6E78A
:1057F800164C1848002101F027FC0022B4F90010CB
:10580800144800F09EFF1949124803F052F8236823
:10581800013B236024330CDA0E4800F09AFFFF2185
:1058280020600022502001F01BFD0146094800F0CD
:105838008BFF0A4801F086FD6420BDE8704002F045
:10584800FFBA70BD90DC032034E3032028DD032079
:10585800C6B10D00E4DC0320D3B10D0000DD032048
:10586800BCDD032078DB032048DC0320E0B10D0019
:105878002DE9F04FBC4E99B00021BC48BC4FDFF871
:105888004883DFF84893BB4CBB4DDFF844A3DFF8EF
:1058980044B3FFF7CDFB3178B84801F047FF3178C2
:1058A800B74801F043FF3A7898F8001099F80000DB
:1058B80001F0D6FC0146B34800F046FF3A7898F864
:1058C800001099F8000001F0CBFC0146AE4800F04A
:1058D8003BFF082206A9AD4800F034FD1A220FA9A3
:1058E800AA4800F02FFD0B9B23600C9B2B60A84B54
:1058F8000D9A1A60149ACAF80020A64A01935946CC
:10590800106801F049FFA44ADBF80010DFF8C8B2BC
:10591800126802A8FEF766FD02A9584603F068F966
:1059280002A803F0D4F8019BD3ED007AF2EE026AE4
:10593800F4EEE67AF1EE10FA3DDD94ED006AB0EE91
:10594800087AB4EEC76AF1EE10FA34D595ED006A1C
:10595800B4EEC76AF1EE10FA2DD589488F4D01F0E3
:105968000BFF874801F0EEFC01F08EFF2B688342A5
:1059780082D28B4C8348002101F066FB0022B4F9E7
:105988000010804800F0DDFEDBF800107D4802F0D2
:1059980089FF2368013B2360243303DA794800F048
:1059A800D8FE2060754801F0CDFC01F06DFF00F5D0
:1059B8009670286060E7BAEE027AF4EEC77AF1EEE4
:1059C80010FA18D5D5ED005AB0EE086AF4EEC65AAA
:1059D800F1EE10FA0FD5D4ED005AF4EEC65AF1EEF6
:1059E80010FA08D5654801F0C7FE644801F0AAFC22
:1059F800FFF72AFE40E795ED006AB4EEE66AF1EE9D
:105A080010FA16DD94ED005AF0EE085AB4EEE55A95
:105A1800F1EE10FA0DD5F4EEE57AF1EE10FA61D553
:105A2800574801F0A9FE564801F08CFCFEF748FEE5
:105A380022E7B4EEC76AF1EE10FA58D594ED005A91
:105A4800F0EE085AB4EEE55AF1EE10FA4FD5F0EE42
:105A5800085AF4EEE57AF1EE10FA48D5474801F015
:105A68008BFE464801F06EFC4E494F4803F01BF987
:105A7800054600287FF400AF494C0146424801F032
:105A8800E3FA2A46B4F900103F4800F05AFE4649A6
:105A980002A803F0A2F8454902A803F0F2F8444925
:105AA80003F0E3F8434903F0ECF8434903F0DDF869
:105AB800424903F0E6F80168334802F0F3FE02A811
:105AC80003F005F82368013B2360C83303DA2E4846
:105AD80000F03FFE20602A4801F034FC642002F008
:105AE800AFF9C9E6B4EEC76AF1EE10FAAFD4D4ED57
:105AF800005AF4EEE65AF1EE10FA7FF7BDAEF0EE7A
:105B0800086AF4EEE67AF1EE10FA7FF5B5AEB4EE77
:105B1800E66AF1EE10FA7FF5AFAEDAED007ADFED66
:105B2800286AF5EEC07AF1EE10FA59DDF4EEE67A5D
:105B3800F1EE10FA54D5124801F01EFE104801F09B
:105B480001FCC8221146104601F08AFB01460D48A7
:105B580001F07AFA094801F0F5FB03F04BFD194909
:105B680002F0B7FE88E600BF74DB032034E30320AD
:105B78007CDB03206CDC032070DC0320B4DC032016
:105B880000DD032098DC0320E4DC032048DD03204B
:105B980030DD03202CDD032080DB032094DC032090
:105BA800DCDC032008BD0D0054E30320E6B10D0042
:105BB800ACDD0320E9B10D0060DD0320F1B10D007B
:105BC8000000B442FFB10D006CDB032070DB032042
:105BD80044DC032078DC03205CDC03200000344331
:105BE800F4EEE67AF1EE10FA5FED046A2FDDF4EEDA
:105BF800E67AF1EE10FA2AD55F4801F0BDFD5E485D
:105C080001F0A0FBFF221146104601F029FB0146D6
:105C18005A4801F019FA6421594801F087FD58489B
:105C280001F090FB4FF4FA7002F00AF90021544891
:105C380001F07CFD524801F085FB4FF4FA7002F048
:105C4800FFF803F0D7FC4F4902F043FE14E6F4EEE8
:105C5800E67AF1EE10FADFED4C6A23DDF4EEE67A2F
:105C6800F1EE10FA1ED5464801F086FD444801F0D1
:105C780069FB3A7898F8001099F8000001F0F0FAFA
:105C88000146424801F0E0F9414B3B48197801F0E0
:105C98004DFD394801F056FB03F0ACFC3D4902F0DC
:105CA80018FEE9E5F4EEE67AF1EE10FA10DDDFED24
:105CB8003A6AF4EEE67AF1EE10FA09D5304801F0C6
:105CC8005BFD2F4801F03EFB1420FEF709FCD3E5ED
:105CD800F4EEC75AF1EE10FA7FF5CEAD2F4C2748F7
:105CE800002101F0B1F90022B4F90010234800F0B6
:105CF80028FD2B49214802F0D5FD2368013B23608C
:105D080024330CDA1D4800F024FDFF212060002216
:105D1800502001F0A5FA0146184800F015FD164874
:105D280001F010FB0021194801F08EF90022B4F9A6
:105D38000010164800F005FD1949144802F0B2FD9C
:105D48002368013B236024330DDA104800F001FD7D
:105D5800124BFF2118600022502001F081FA014601
:105D68000A4800F0F1FC044801F0ECFA4FF4967090
:105D780002F066F880E500BF00DD032098DC032010
:105D8800B4DC0320F3B10D0000008743E4DC0320FA
:105D980074DB0320F9B10D000000B443DCDC032000
:105DA80005B20D0010B51421044603F0D6FD2046B7
:105DB80010BD10B50446FEF7CBF92046442103F088
:105DC800CCFD204610BD0000704B2DE9F74300259F
:105DD8006F4E1D706F4B704CDFF8288201271F70C3
:105DE80001F06AFD304603F06BFA06F11C0002F080
:105DF800BFFB2246694975633046358703F0A8FD25
:105E0800674B29461E605D609D60DD601D615D61B8
:105E18001D835D831D775D77384601F005FF614E70
:105E28006148624F05602246314603F091FD6048A3
:105E38003146604E056022465F4D03F089FD3146CC
:105E4800384602F08BFE38465C4F2246294603F05E
:105E58007FFD3146384602F081FE3846584F2246CB
:105E6800294603F075FD3146384602F077FE38467C
:105E7800544F2246294603F06BFD3146384602F05E
:105E88006DFE2246294638464F4F03F061FD322306
:105E9800009307F12C0107F50B734FF40072384695
:105EA80000F0D2FC494B3B603846494F49492246ED
:105EB80003F04EFD3146384602F050FE3846464F54
:105EC8002246294603F044FD3146384602F046FE94
:105ED8003846424F2246294603F03AFD31463846B5
:105EE80002F03CFE22462946384603F031FD3C4B81
:105EF8003C4819683C4D3D4E01F03EF803F0E6FC85
:105F0800282203463721284600F0A0F822463849BF
:105F1800284603F01DFD022710234FF006091946F5
:105F2800344D0197CDF800900822304601F06EF903
:105F380022464146304603F00BFD0F230197CDF86A
:105F4800009008221021284601F060F94146DFF848
:105F5800B8802246284603F0FBFC3B460F228021EE
:105F6800404601F0DDF922462349404603F0F0FCA3
:105F7800304600F0EEFB214B1860284600F0E9FBA4
:105F88001F4B186003B0BDE8F08300BF5CDD032041
:105F980070DD032054DC03203CDC0320194A0D008B
:105FA80034E30320D3410D00E0DC03205CDC032054
:105FB80058DC032008BD0D00D78A0D0054E30320E8
:105FC800ACDD032060DD0320C4DD032020B00D001C
:105FD80010E3032071410D0080DC032024E303203B
:105FE80078DB032048DC032048DD032098DC03200D
:105FF80001410D00E4DC032089720D00DCDC032084
:1060080028DD032059410D0034DD032038B50C4646
:10601800054628220021204604F037FB0B220949B7
:10602800204604F0ADFB00230122E372E260EA6837
:10603800636200232261A3610322E361024B626170
:10604800236238BD09B20D000AD7233C30B5034D91
:106058000560C1604271836030BD00BF18B20D0099
:1060680070B504460E4641798068154602F036FA46
:10607800A068036831469B689847A068036829466A
:106088009B689847A06802F031FA012070BD08B5F6
:106098000A4601743D21FFF7E3FF1E20BDE80840D2
:1060A80001F0CEBE70B50D4600210446067CFFF710
:1060B800EEFF192001F0C4FE002207212046FFF759
:1060C800CFFF0DB1802200E02A463F212046FFF78E
:1060D800C7FF0A2001F0B4FE20463146FFF7D7FF7C
:1060E8001420BDE8704001F0ABBE38B504460D463B
:1060F8004179806802F0F2F9A068036829469B6834
:106108009847A06802F0F2F901226179A06802F0CC
:10611800E2F9A06803685B699847C0B238BD38B532
:10612800044680680D4602F0C7F900212046FFF7B3
:10613800DCFFA02809D120460021FFF7A8FF202274
:106148003F212046FFF78CFF0BE04FF47A7001F0F7
:1061580077FE00212046FFF7C8FFA028EBD00020DB
:1061680038BD00212046FFF7C0FFA02803D00A2031
:1061780001F066FEF5E7322001F062FE00223E21C2
:106188002046FFF76DFF0A2001F05AFE0022072182
:106198002046FFF765FF00223F212046FFF760FFFA
:1061A8000A2001F04DFE29462046FFF770FF142013
:1061B80001F046FE012038BDF8B504460E46417987
:1061C800806817461D4602F089F9A06803683146C1
:1061D8009B689847A06802F089F92A466179A06807
:1061E80002F079F9013D7E1E3D44AE4206D0A0681A
:1061F80003685B69984706F8010FF6E70120F8BDC8
:10620800F7B50D46174600211822044604F03DFA5A
:1062180000230093ADF80430284606236A46394621
:10622800FFF7CAFF9DF800309DF801009DF8036054
:106238009DF8055043EA00209DF8023043EA0626FF
:106248009DF80430142F43EA052500B236B22DB26A
:106258000AD003D8082F20D00E2F04E0282F1CD0F6
:106268002E2F1AD01A2F32D103F02EFE0022194BEE
:1062780003F090FEC4E90001304603F025FE002239
:10628800144B03F087FEC4E90201284603F01CFE04
:106298000022104B03F07EFE17E003F015FE0022EB
:1062A8000D4B03F0A1FFC4E90001304603F00CFEDA
:1062B8000022094B03F098FFC4E90201284603F0C5
:1062C80003FE0022044B03F08FFFC4E904012046BB
:1062D80003B0F0BD0000B03F0000594070B50C4657
:1062E800242686B0054632460021204604F0CDF922
:1062F8002660EB6863600323A36001F0C5FA1A22E5
:10630800206129466846FFF77BFFDDE9000104F0BC
:1063180053F86061DDE9020104F04EF8A061DDE99F
:10632800040104F049F8E061012006B070BD30B501
:10633800034601F11802F1E802459142E3E80245FB
:10634800F9D130BDF0B50C4624278DB000210646A2
:10635800154620463A4604F098F92760F3686360CA
:1063680001F092FA182220610021684604F08DF9A4
:10637800282D01D10A2310E0082D01D02E2D01D19E
:1063880001230AE01A2D01D1032306E0142D01D1BF
:106398000B2302E00E2D19D10223A3602A463146B1
:1063A80006A8FFF72DFF06A96846FFF7C0FFDDE93D
:1063B800000104F001F86061DDE9020103F0FCFF6F
:1063C800A061DDE9040103F0F7FFE06101200DB0F1
:1063D800F0BD01F071BA2DE9F04F85B01E46BDF948
:1063E8003830BDF83CA015469A1A002AB8BF524268
:1063F8000092721A002AB8BF524201920C46009AC3
:1064080001998A42814605DD32461E4613462246D8
:106418002C461546B44205DD2A461D46134622463B
:10642800344616465A1B002AB8BF5242C4EB060827
:106438009D42B4BF01234FF0FF331FFA88F802933F
:1064480003920FFA88F7022297FBF2F7B4421FDC97
:10645800019A009B9342D9F80030C8BF2246D3F86E
:1064680010B0C8BF29465346DCBF2A4621464846D5
:10647800D847039BFF1ABBB21FB2002F05DA029A56
:1064880008EB030715442DB23FB2013424B2DDE70F
:1064980005B0BDE8F08F2DE9F347BDF82C6007681B
:1064A800BDF928A000960446FF6991460D46984616
:1064B800B847236800960AF1FF324A44DF69294643
:1064C8004346204612B2B847236800969F694A4659
:1064D800534629462046B84723680A9608F1FF31F3
:1064E80029449D694A46534609B22046AC4602B043
:1064F800BDE8F047604737B5013B13440468BDF871
:10650800185001951BB2009364690B46A04703B06D
:1065180030BD37B5BDF8185004688DE82400013B3C
:106528000B4464691BB2A04703B030BD2DE9F347A3
:10653800BDF92880BDF82C90054617460C4601EB9E
:10654800030A54450BDA2B68CDF800909E69214662
:1065580043463A4628460134B04724B2F1E702B030
:10656800BDE8F08713B5B0F90E20046801910092D8
:106578000022B0F90C30646A1146A04702B010BD81
:106588007047000030B501810024084D42818181A7
:10659800C2814FF6FF71012244600560447604828F
:1065A80044820276C1828182827630BD34B20D0087
:1065B8002DE9F04F8FB005460691BDF860100791A0
:1065C800BDF864100891B0F90C1006989DF8688021
:1065D80081427CDDB5F90E10914278DD062111FB70
:1065E8000800002873DD02EBC80000286FDD03EB0C
:1065F800830396B20C9306F108039BB20991002419
:106608000D93052C1CBF334B0C9A059616BF1B190E
:106618004FF0000913F8029004961FFA88F30393C9
:10662800039ABDF8183004FB023213FA84F312B24D
:106638001BB20A9237460FFA88FA0B9319F0010F2A
:1066480011D0B8F1010F2B6803D1D3F810B0079B14
:1066580014E0079A0192CDF800A0D3F824B0BDF950
:106668001020534618E0079B089A934217D0B8F1B8
:10667800010F2B6807D1D3F810B013463AB20B9923
:106688002846D8470BE0089A0192CDF800A0BDF93A
:106698001420D3F824B053460A992846D847049BB7
:1066A800039A13449BB20493059B13449BB201378E
:1066B80005930D9BBFB29F424FEA5909BED1099B72
:1066C800013B013413F0FF0364B2099399D10FB071
:1066D800BDE8F08F64B20D0030B50A2985B00446D4
:1066E8000B4604D1027E438A03EBC20323E00D2943
:1066F80024D0057EB0F91220B0F910100295C58A91
:106708000195858A0095FFF753FF227E238A91B26F
:1067180001EB410003EB4003A07E1BB2238268B16A
:10672800B4F90C006FF0050505FB0202934205DD84
:10673800638A03EBC103638200232382012005B02F
:1067480030BD018242827047C18281827047817662
:106758007047B0F90C00704701F0AEB801F0ACB862
:1067680008B501F0A9F8014B186008BD64E30320DF
:1067780001F0A2B810B5054B0360037C04461BB9B1
:10678800406808B101F00CFB204610BD68B70D0049
:1067980010B50446FFF7EEFF2046142103F0DDF89C
:1067A800204610BD10B5074B0360037C04461BB997
:1067B800406908B101F0F4FA2046FFF7DBFF2046F4
:1067C80010BD00BFA8B70D0010B50446FFF7EAFFDB
:1067D80020462C2103F0C1F8204610BD38B5037CB3
:1067E80004460D460BB1002038BD406810B101F0D9
:1067F800DFFA02E0084601F0CBFA0028F3D0606027
:10680800A560012038BD70B543680E46044615469C
:10681800C1687BB15318826893420BD8E3686068FB
:106828002A463146184403F025FFE3681D44E56015
:10683800012070BD29442046FFF7D0FF0028EDD184
:1068480070BD0023C360704710B582600022C2602B
:10685800012202744361034A029B41600260C361E2
:1068680010BD00BFA8B70D0043698269934205D2E5
:106878001A78012A0CBF184600207047002070477C
:1068880070B513689D68136803F110041460866975
:10689800B4420AD29B698C68A34201DA9D42F2DABB
:1068A800A342CCBF0020012070BD002070BD2DE99F
:1068B800F34702AD9A4601F110030A9E45F8043DDC
:1068C80007460C4691464FF00008019BBA699A4268
:1068D8001ED99968A26891421ADAB0450BD1C9F855
:1068E80000302A4621463846FFF7CAFF18B1019BF7
:1068F800CAF800300DE02A4621463846FFF7C0FFA7
:106908002A462146384608F10108FFF7B9FFDCE7B7
:10691800002002B0BDE8F08738B5044600680D468F
:1069280010B102F095F907E0616829B1A368E2683F
:10693800013B9A4238BF8D54E3680133E36038BDA8
:106948007F2870B50C4601D8C1B219E0B0F5006FC8
:106958004FEAA01500F03F0603D265F03F01C9B227
:1069680009E0010B41F0E0012046FFF7D5FF05F0F3
:106978003F0141F080012046FFF7CEFF46F080013D
:106988002046BDE87040FFF7C7BF00002DE9FF4172
:106998004D6880460F4616460024B868854246DA98
:1069A800D8F80430CCB3595D6E2903EB05020FD03B
:1069B80005D862290AD066290BD10C2109E074296F
:1069C8000ED075290ED0722903D107E0082100E006
:1069D8000A213046FFF7A0FF002426E00D21F8E742
:1069E8000921F6E72B1D9842F6DD002302A812F8CC
:1069F800011F19540133042BF8D1002301AA0E49B1
:106A08008DF80C3001F0E4F90128E5D13146BDF8E4
:106A18000400FFF795FF0535DEE7595D5C2903D0D3
:106A28003046FFF779FF00E001240135B5E7012082
:106A380004B0BDE8F08100BF74B70D007FB50C4607
:106A480006460C491046154602F0DAF8A368616854
:106A5800591A0131284602F058F800236A4621469F
:106A680030460095019302930393FFF78FFF04B01C
:106A780070BD00BF08BD0D002DE9F04389B0064682
:106A88000F4604A811499046994602F067F8002578
:106A980000954B4603AA39463046FFF708FF0446DF
:106AA80068B104AA03993046FFF7C8FF044620B12D
:106AB800414604A802F0F7F808B90135E8E704A848
:106AC80002F005F8204609B0BDE8F08308BD0D00C6
:106AD8002DE9F04F44684FF0FF354FF0030ED0F822
:106AE80000C0944580F09E8111F80C80B8F1000F29
:106AF80000F09881B8F12C0F00F0168118D8B8F181
:106B08000D0F00F08B8106D8A8F10908B8F1010F24
:106B180040F284813DE1B8F1200F00F07F81B8F1A7
:106B2800220F40F036810CF10109C0F8009092E084
:106B3800B8F15D0F3CD007D8B8F13A0F00F0F080FB
:106B4800B8F15B0F07D024E1B8F17B0F03D0B8F19F
:106B58007D0F2DD01DE10134002B00F05F814768C7
:106B6800099EBE4240F27D8107F1010CC0F804C0C5
:106B78004FEA071C03EB0C0A0026CAF80450CAF8AF
:106B88000C60CAF8085087687E1C1FBF03EB071902
:106B9800D9F80C700137C9F80C70B8F17B0F14BF25
:106BA8000227012703F80C700768CAF80470B7E0D9
:106BB800002B00F033814768B8F17D0F07F180584A
:106BC80008F1FF3814BF4FF0020A4FF0010A07F12D
:106BD800FF3903EB0818B9F1000F19DBD8F8047076
:106BE800013710D0D8F808707E1C0CD198F800B086
:106BF800D34540F0298187600CF10107C8F8087077
:106C080003EB091C11E009F1FF39A8F11008E2E7CC
:106C1800B9F1FF3F40F0028116E109F1FF39B9F1FE
:106C2800FF3FACF1100C00F0F980DCF8047001377C
:106C3800F3D0DCF808700137EFD1C0F80890EDE028
:106C480011F80870002F68D0222F09D05C2F26D0A9
:106C5800076801370760D0F800804245F0D85CE04B
:106C6800002B00F0CE804768099EBE4240F2F780B4
:106C780007F1010C3F01C0F804C003EB070C002624
:106C8800CCF80850CCF80450CCF80C60D0F8008050
:106C980003F807E0CCF80490CCF80880B1E008F1DC
:106CA8000107BA42D4D90760CF5D662FD0D008D883
:106CB8002F2FCDD001D8222F07E05C2FC8D0622F0C
:106CC80003E0722FC4D002D86E2F75D1C0E7742F9D
:106CD800BED0752F70D108F1020707604FF0040A83
:106CE800D0F80080424503D80768013F0760AFE746
:106CF80011F80870002FF7D0A7F1300BBBF1090F7E
:106D080004D927F02007413F052F55D808F101077E
:106D1800BAF1010A0760E3D1E6E7C0F800C09AE0DB
:106D28004768013F876079E0002B77D087687E1C31
:106D380074D03F01DF5D013F012F6FD9476807F12C
:106D4800FF3803EB071CB8F1000F67DB1CF8107C59
:106D5800013F012F0AD85CF80C7C013706D05CF89B
:106D6800087C013702D1C0F8088057E008F1FF38E5
:106D7800ACF1100CE7E711F8087007B3202F1ED00C
:106D880010D8092F0AD2203F5E2F15D808F1010725
:106D98000760D0F800804245EDD810E00A2F0ED9E0
:106DA8000D2F07E03A2F0AD001D82C2F02E05D2FD3
:106DB80005D07D2FE7D102E0C0F800C044E013B948
:106DC80008F1FF371CE04768099EBE4247D907F122
:106DD80001083F01C0F8048003EB07080026C8F843
:106DE8000850C8F80450C8F80C604FF00406D0F8F2
:106DF8000090DE55C8F804C0C8F808900768013F3D
:106E0800076087687E1C04F1010407D033B103EBE7
:106E1800071CDCF80C700137CCF80C7007680137D8
:106E280007605CE6A3B14268511E03EB0213002918
:106E38000EDB53F80C2C013203D053F8082C013226
:106E480009D00139103BF2E76FF00100BDE8F08F7F
:106E58002046BDE8F08F6FF00200BDE8F08FC0F863
:106E680000C04FF0FF30BDE8F08FF7B54369044626
:106E780000F12006F3B10022026242624FF0FF32B5
:106E88008262C2690092C26841683046FFF720FEFC
:106E9800431C09D1257C0DB1002033E0606900F066
:106EA8007FFF6561E56105E00028F5DB636903EBB9
:106EB800001325E000254FF0FF3725626562A762C1
:106EC80000952B46E26861683046FFF701FE00280E
:106ED800E2DBE06113D0000100F05AFFE269606173
:106EE8000346009225626562A762E26861683046DF
:106EF800FFF7EEFD636903EB0010A06101E0636931
:106F0800A361012003B0F0BD00F0D6BC00F0D4BCF2
:106F180000F0D2BC00F0D0BC70B505460C4608465F
:106F280049B103F010FC2B68024621462846DB686D
:106F3800BDE87040184770BD00F0BEBC00F0BCBC96
:106F480000F0BABC00F0B8BC00F0B6BC00F0B4BCAD
:106F580000F0B2BC00F0B0BC00F0AEBC00F0ACBCBD
:106F680000F0AABC00F0A8BC00F0A6BC10B504460E
:106F780000F08AFC206010BD38B504460D46FFF7C6
:106F8800F5FF00236560A360204638BD10B50446B0
:106F980000F07AFC2368C01A6368984204D320463C
:106FA800FFF7E4FF012010BD002010BD10B5836875
:106FB800044633B1FFF7EAFF18B1A368BDE81040F3
:106FC800184710BD8160704700F076BC00F038BFEC
:106FD80000F05ABC00F070BC704770477047000062
:106FE8007F289ABF024B53F820000020704700BF4B
:106FF800B0B90D007F289ABF024B53F8200000203B
:10700800704700BFB0B70D0000F056BC00F054BC8C
:10701800024B01221A7000F04FBC00BF68E3032046
:10702800074AC312D15C00F01F03C0F34510D35CBC
:10703800044A105C43EA014343EA0020704700BF5A
:10704800E8BB0D0008BC0D00F8B590F840300446C8
:107058000BB1C66B03E00846FFF7E2FF06461C3497
:10706800204600F061FB00250746A9B2B94205D2C7
:107078003246204600F008FB0135F6E7F8BD2DE959
:10708800F8430646081E1F46C0F2BE80002AC0F21A
:10709800BB80B6F90C30834240F3B680B6F90E30A7
:1070A800934240F3B180737E022B09D0032B10D09A
:1070B800012B13D13389013B9B1A024618B20DE00C
:1070C8003389013B181A7389013B9A1A00B212B22C
:1070D80004E07389013B1B1A10461AB2B36B23B143
:1070E80091B280B2984700217BE096F8303096F84C
:1070F800331003F0030C002948D096F831E096F8D5
:10710800328090FBFEF5ADB292FBF8F41FFA84F9D9
:107118001EFB05F4001B18FB09F4121B9C0642BF5A
:1071280001F1FF34651BADB2DC0641BF96F834406F
:1071380004F1FF34C9EB04041FFA84F95C065DBF4F
:107148004C4689B2A94696F8341058BF25461C0605
:1071580000B212B205D415FB01F109EB0104A4B287
:1071680010E0EC0709D501356FEA090415FB01F5B4
:1071780029198CF0030C8CB204E015FB01F509EB1E
:107188000504A4B20EFB04F108FB01F11CF0020F88
:1071980018BF96F8314080B21EBF04F1FF34201AA0
:1071A80080B21CF0010F18BF96F8324092B21EBF91
:1071B80004F1FF34A21A92B25C075BBF154696F839
:1071C800314096F83240024658BF28461D0706D57A
:1071D800C30704D500FB04400138801A01E004FB12
:1071E800002096F84030014406F11C058CB20BB122
:1071F800F26B03E03846FFF713FF024621462846A4
:10720800BDE8F84300F040BABDE8F883F8B50E468B
:10721800154609B212B204461F46FFF7B3F916FB2A
:1072280005F19DF81C303A4689B204F11C0000F0C3
:1072380077F80A4B23609DF8183084F83030002323
:1072480084F8316084F8325084F8333084F834306C
:10725800A36384F840302046F8BD00BFB8BB0D00DA
:10726800C90001F4FC61000241EAD20200F478404E
:107278001043704700F020BB00F0FEBA00F0F4BAEB
:1072880010B50446C06808B100F08AFD23781BB128
:107298000021E07902F0A0FA204610BD38B5044676
:1072A800C0680D4608B100F07BFDA379062B0CBF22
:1072B8000420032010FB05F080B2A08000F068FDD8
:1072C800E06028B1A288002103F0DFF9658038BDAD
:1072D800A080608038BD10B504460121C07902F055
:1072E8007BFA0021E07902F088FA0123237010BDAF
:1072F80038B5037805460C461BB10021C07902F069
:107308006BFA2B78EC7153B1A4B22046012102F03C
:1073180063FA20460021BDE8384002F06EBA38BD55
:1073280070B5002504461646837105700572C56060
:107338000561FFF7B3FF20463146FFF7D9FF204626
:1073480070BD0000C368002B00F08B812DE9F04F61
:107358008379023BDBB2042B9CBFC44A52F823401A
:1073680087B0054688BF3224FFF786FF2B69C01A0D
:10737800A042F9D3BE4AAB8807CA06AC04E90700A5
:10738800039C1B01D4F800250433019322B9D4F8D7
:107398006035002BC0F25581049CD4F8003523B920
:1073A800D4F86035002BC0F23C81059CD4F8003538
:1073B8001BB9D4F86035002B6EDBAE4BEA791E683A
:1073C800AD4CAE49E0681201B31840F080705B78AC
:1073D800B75CE0600A6803F01F0343EA471301271C
:1073E8003A430A600C46A888D5F80C90D4F804A053
:1073F8009F408846002844D0CC4600224FF0A04148
:107408001CF801EB0820802663689B1A462BFBD9E1
:10741800D8F80420D1F808351EEA060F43EA070316
:10742800C1F808352FD063689B1A282BFBD9D1F8EF
:107438000C35013843EA07034FEA5606C1F80C3504
:10744800E2D1C9EB0C03A8889BB29842D8D84FF474
:10745800307303FB00F063689B1A462BFBD9D8F8FE
:107468000430CAEB030A8245C0F0D5804FF4967009
:10747800FFF704FFA888D5F80C90D4F804A00028DA
:10748800BAD10246E7E763689B1A112BCFD8636825
:107498009B1A112BF7D9CAE7D4F86435002B8CDA7C
:1074A800D4F86835002B88DAD4F86C35002B84DAE8
:1074B800019800F06DFC00283FF47FAFAB88002BEB
:1074C80000F0D08000273B466D4E6E4900E0134621
:1074D800EA68D25D03F1010E12F0800F14BFB046C6
:1074E80088461FFA8EFE12F0400F14BFB146894637
:1074F80012F0200F20F8138018BFB24620F81E9013
:1075080008BF8A4603F1020812F0100F03F1030EB8
:1075180014BFB4468C461FFA88F812F0080F1FFAF9
:107528008EFE03F104091FFA89F914BFB3468B468E
:1075380012F0040F20F818A020F81EC014BFB2469D
:107548008A4603F1050812F0020F03F1060C03F155
:10755800070E20F819B01FFA8EFE14BFB1468946EF
:107568001FFA88F812F0010F1FFA8CFC14BF32467C
:107578000A4620F818A020F81C9020F81E20013791
:10758800B5F804E0BFB203F10802BE4592B29ED836
:1075980003F109020A3392B29BB252005B000199CF
:1075A8004FF4004686524908C65200221423C4F8F4
:1075B8000425304EC4F80C25C4F80835C4F8142541
:1075C800C4F81025C4F82005C4F82415C4F82825E3
:1075D800C4F82C25EB7931681B01CE18C95C737887
:1075E80003F01F0343EA41130121C4F86035C4F8CE
:1075F8000015C4F81021A160D4F81031002BFBD07D
:1076080000234FF0FF32C4F81031C4F80035C4F835
:10761800602500F0C5FBFFF72FFE286107B0BDE825
:10762800F08FD4F86435002BBFF6BFAED4F86835B8
:10763800002BBFF6BAAED4F86C35002BBFF6B5AE4A
:1076480036E7D4F86435002BBFF6A6AED4F8683513
:10765800002BBFF6A1AED4F86C35002BBFF69CAE5C
:1076680026E770470423022299E700BF54BC0D00A7
:1076780048BC0D006CE30320F0ED00E0001000E0D2
:107688000D80FFFF0680FFFF43888B42F0B545D988
:10769800057AC2F30743C2F30724D6B245B16B4358
:1076A8006C436E43C3F30723C4F30724C6F30726CA
:1076B80090F806C0C768BCF1060F0CBF0425032567
:1076C8006943BCF1080F07EB010524D84FF0010E00
:1076D8000EFA0CFE1EF4D27F0CD11EF0400F0DD115
:1076E8001EF0100F17D0FF2B08BFFE237B546E70BF
:1076F800AC70F0BD7C546B70AE70F0BD7B546C7098
:10770800AE70037A120E0BB9D2B202E05A43C2F33A
:107718000722EA70F0BD7B546C70AE70F0BD42EA8F
:10772800012242EA00407047408870474A1C037AA9
:10773800D2B29A4270B51ED0013B13F0FF03C46861
:107748000CD0FF291FBF110201F1FF3191FBF3F3A8
:107758009BB204BF4FF6FF7191FBF3F32546291B3B
:10776800868889B28E4205D929785943091205F8C5
:10777800011BF4E7027270BD8288C068002102F024
:1077880084BF000008B500F097F800F095F8014BA9
:10779800186008BD6CE3032070B590F85260044689
:1077A8000D4626B901F01BFE85E8410070BD00F0CA
:1077B8006BF8A26F636F9B1A1844A26DA36E4FF407
:1077C8007A719B1A90FBF1F2134401FB12002B60B3
:1077D800686070BD00F070B808B5024B1B685B6844
:1077E800019308BD4802030008B5024B1B689B685B
:1077F800019308BD4802030008B5024B1B68DB680B
:10780800019308BD4802030008B5024B1B681B69B9
:10781800019308BD4802030008B5024B1B685B6969
:10782800019308BD4802030008B5024B1B681B6B97
:10783800019308BD4802030008B5024B1B685B6C46
:10784800019308BD4802030008B5024B1B68DB6EB4
:10785800019308BD4802030008B5024B1B685B682A
:10786800019308BD1802030008B5024B1B68DB68CA
:10787800019308BD1802030008B5024B1B681B6979
:10788800019308BD1802030008B5024B1B685B6929
:10789800019308BD1802030008B5024B1B68DB6999
:1078A800019308BD1802030008B5024B1B689B6DC5
:1078B800019308BD1802030008B5024B1B681B683A
:1078C800019308BD2C02030008B5024B1B685B68D6
:1078D800019308BD2C02030008B5024B1B689B6886
:1078E800019308BD2C02030008B5024B1B68DB6836
:1078F800019308BD2C02030008B5024B1B681B69E5
:10790800019308BD2C02030008B5024B1B685B6994
:10791800019308BD2C02030008B5024B1B689B6A43
:10792800019308BD2C02030008B5024B1B681B6BB2
:10793800019308BD2C02030008B5024B1B689B6F1E
:10794800019308BD2C02030008B5024B1B68DB68D5
:10795800019308BD2802030008B5024B1B685B6948
:10796800019308BD2802030008B5024B1B689B69F8
:10797800019308BD2802030008B5024B1B68DB69A8
:10798800019308BD2802030008B5024B1B681B6A57
:10799800019308BD2802030008B5024B1B685B6A07
:1079A800019308BD2802030008B5024B1B689B6AB7
:1079B800019308BD2802030008B5024B1B68DB6A67
:1079C800019308BD2802030008B5024B1B681B6B16
:1079D800019308BD2802030008B5024B1B685B6BC6
:1079E800019308BD2802030008B5024B1B681B6CF5
:1079F800019308BD2802030008B5024B1B685B69A8
:107A0800019308BD6C02030008B5024B1B685B6953
:107A1800019308BD6402030008B5024B1B681B6A8A
:107A2800019308BD6402030008B5024B1B689B6AFA
:107A3800019308BD6402030008B5024B1B689B68EC
:107A4800019308BD6802030008B5024B1B68DB6898
:107A5800019308BD6802030008B5024B1B681B6848
:107A6800019308BD2402030008B5024B1B689B69FB
:107A7800019308BD3802030008B5024B1B68DB6997
:107A8800019308BD3802030008B5024B1B681B6A46
:107A9800019308BD3802030008B5024B1B689B6AB6
:107AA800019308BD3802030008B5024B1B681B6B25
:107AB800019308BD3802030008B5024B1B689B6B95
:107AC800019308BD3802030008B5024B1B68DB6947
:107AD800019308BD3002030008B5024B1B681B6AFE
:107AE800019308BD3002030008B5024B1B681B68F0
:107AF800019308BD3C02030008B5024B1B68DB6814
:107B0800019308BD3C02030008B5024B1B681B69C2
:107B1800019308BD3C02030008B5024B1B685B6972
:107B2800019308BD3C02030008B5024B1B689B6922
:107B3800019308BD3C02030008B5024B1B68DB69D2
:107B4800019308BD3C02030008B5024B1B681B6A81
:107B5800019308BD3C02030008B5024B1B689B6AF1
:107B6800019308BD3C02030008B5024B1B681B6863
:107B7800019308BD4C02030008B5024B1B685B6803
:107B8800019308BD4C02030008B5024B1B681B6932
:107B9800019308BD4C02030008B5024B1B685B69E2
:107BA800019308BD4C02030008B5024B1B689B6992
:107BB800019308BD4C02030008B5024B1B68DB6942
:107BC800019308BD4C02030008B5024B1B681B6AF1
:107BD800019308BD4C02030008B5024B1B685B6BA0
:107BE800019308BD6002030008B5024B1B681B6DBA
:107BF800019308BD6002030008B5024B1B681B68AF
:107C0800019308BD2002030008B5024B1B685B689E
:107C1800019308BD2002030008B5024B1B685B698D
:107C2800019308BD2002030008B5024B1B68DB6AFC
:107C3800019308BD2002030008B5024B1B68DB6CEA
:107C4800019308BD2002030008B5024B1B685B6D59
:107C5800019308BD2002030008B5024B1B689B6D09
:107C6800019308BD2002030008B5034B1B68D3F835
:107C78008830019308BD00002002030008B5034BBB
:107C88001B68D3F89430019308BD0000200203005C
:107C980008B5024B1B689B68019308BD44020300AA
:107CA80008B5024B1B685B69019308BD44020300D9
:107CB80008B5024B1B681B6A019308BD4402030008
:107CC80008B5024B1B685B6A019308BD44020300B8
:107CD80008B5024B1B681B6B019308BD44020300E7
:107CE80008B5024B1B68DB6B019308BD4402030017
:107CF80008B5024B1B685B68019308BD400203008E
:107D080008B5024B1B689B68019308BD400203003D
:107D180008B5024B1B68DB68019308BD40020300ED
:107D280008B5024B1B681B69019308BD400203009C
:107D380008B5024B1B685B69019308BD400203004C
:107D480008B5024B1B689B69019308BD40020300FC
:107D580008B5024B1B68DB69019308BD40020300AC
:107D680008B5024B1B681B6A019308BD400203005B
:107D780008B5024B1B681B6B019308BD400203004A
:107D880008B5024B1B685B6B019308BD40020300FA
:107D980008B5024B1B681B68019308BD1C02030051
:107DA80008B5024B1B685B68019308BD1C02030001
:107DB80008B5024B1B689B68019308BD1C020300B1
:107DC80008B5024B1B68DB68019308BD1C02030061
:107DD80008B5024B1B685B69019308BD1C020300D0
:107DE80008B5024B1B689B69019308BD1C02030080
:107DF80008B5024B1B68DB69019308BD1C02030030
:107E080008B5024B1B685B6A019308BD1C0203009E
:107E180008B5024B1B68DB6A019308BD1C0203000E
:107E280008B5024B1B681B6B019308BD1C020300BD
:107E380008B5024B1B68DB6B019308BD1C020300ED
:107E48000021FFF7E9BE10B5836804460BB901F0BD
:107E58009EFDC3689847A3681BB1032221462046AC
:107E6800984720461021BDE8104001F076BD0B6808
:107E7800036013B15A6801325A6070470248002300
:107E88000360FFF7D9BC00BF70E3032070470020F0
:107E9800704710B51021044601F05FFD204610BD63
:107EA80008B508B1FFF7F5FF08BD38B5C468ECB1EF
:107EB8002378022B02D1E068FFF772FF656835B1BD
:107EC8002846FCF766F91021284601F046FDA5680A
:107ED80035B12846FCF75DF91021284601F03DFD33
:107EE80020461421BDE8384001F037BD38BD13B530
:107EF800044691E8050000234B600B602060626037
:107F080001A801930093FCF71DFD204602B010BDA7
:107F1800F7B50C4602AD54F8043B45F8083D064653
:107F28000F4601A82146FFF7A2FF29463046FFF772
:107F3800DEFF01A8FCF706FD2046FCF703FD3846E6
:107F4800082101F00AFD304603B0F0BD13B50B4619
:107F5800044603C88DE8030093E8030084E803009F
:107F68009DE8030083E8030002B010BD826810B5E5
:107F78000AB901F00CFDC368BDE81040184708B500
:107F8800006800F11001FFF7F1FF08BD826810B525
:107F98000AB901F0FCFCC368BDE81040184708B5F1
:107FA800006800F11001FFF7F1FF08BD38B50023A4
:107FB80083608B6804460D462BB102229847EB6814
:107FC800E360AB68A360204638BD00002DE9F041AE
:107FD8004FF69C7386B00468B1F904208B800023A7
:107FE8000F688DF800300B604FF00200D4E84F1F87
:107FF800994203D1C4E8450F002DF7D102D08DF87E
:1080080000106BE014F10C051EBFE76022821F46CA
:108018000123BFF35F8F0020637004F10803BFF3EF
:108028005F8F53E8006F43E80002002AF9D1BFF3DD
:108038005F8F002E52D0FFF7FFFD20B12946304652
:10804800FFF794FF43E031466846FFF7AFFFE0686B
:10805800B4F9105008B102F05BFB04901020ADF8A1
:108068001450FCF714F8054630B34FF00008C0F878
:1080780008801820FCF70BF80446C0B1C0F8088047
:1080880001466846FFF762FF029BA268A360039B54
:108098000292E268E360BDF81430A3824FF69C7345
:1080A800ADF81430049B03922361CDF810800E4B79
:1080B800EB600E4B2C60AB600498FFF771FE6846CE
:1080C800FCF767F8002229460948FFF7BDFD30464E
:1080D800FCF75FF81021304601F03FFC3846FFF707
:1080E8005FFE06B0BDE8F081877F0D00E5810D00D9
:1080F8004F7E0D002DE9F04F8BB007AD4FF0000B10
:108108000646994614200C230F4690469DF850A029
:10811800C5F804B0C5F808B00793FBF7B8FF0446E4
:1081280038B180F800B080F801B0C0F804B0C0F8E9
:1081380008B00023102003940493FBF7A8FF28B18C
:10814800012343608360234B0360C4600490224B87
:1081580008930820FBF79BFF044628B1039B40F8CF
:10816800043B04A9FFF783FE00955FFA8AF34A46A9
:10817800414638460994FFF79BFDB8B9039B5B78E5
:1081880003F0FF0293B94FF69C7305A903A8059263
:10819800ADF81830FFF71AFF0598FFF701FE05A89C
:1081A8000999FFF7B5FE06A8FCF7CCFB039B0593DE
:1081B80004A906A8FFF75BFE05A93046FFF797FE5E
:1081C80006A8FCF7BFFB04A8FCF7BCFB30460BB0C5
:1081D800BDE8F08F70BC0D0051830D00022AF8B580
:1081E800044606D0032A17D0012A21D10B68036060
:1081F8001EE018200E68FBF74AFF054650B13146CD
:10820800FFF7D4FE3069B6F9147008B102F080FAAD
:108218002861AF8225600BE004684CB12069FFF744
:10822800BFFD2046FBF7B5FF1821204601F095FB5E
:108238000020F8BD38B5002383608B6804460D46DE
:108248002BB102229847EB68E360AB68A360204635
:1082580038BD022A70B5044606D0032A11D0012A77
:1082680018D10B68036015E014200E68FBF70FFFA8
:10827800054620B13146FFF7DDFF337C2B742560BE
:1082880008E0046834B12046FBF783FF1421204638
:1082980001F063FB002070BDF0B5002387B00C46E9
:1082A800BFF35F8F50E8006F40E80032002AF9D131
:1082B800BFF35F8F002E3FD01846FFF7BDFC07467F
:1082C80020B121463046FFF761FE2EE0314601A875
:1082D800FFF7B0FF23788DF814301020FBF7D7FE96
:1082E8000546D0B187601420FBF7D1FE044678B16B
:1082F8008760014601A8FFF729FE039BA268A360D7
:10830800049B0392E268E3609DF81430049223749E
:108318000A4BEB600A4B2C60AB6001A8FBF739FFF6
:10832800002229460748FFF78FFC3046FBF731FF4C
:108338001021304601F011FB07B0F0BDA77F0D00FA
:108348005B820D004F7E0D0030B585B004460D46AA
:1083580068461146FFF7DCFD7CB124B228460DB112
:1083680002F0D6F9029002A96846ADF80C40FFF772
:108378002DFE0298FFF714FD1DE000988DF80840C7
:108388004FF00102D0E84F3FA34203D1C0E8412F8C
:108398000029F7D102D08DF808300CE010F10C015B
:1083A8004FF0010318BF0373BFF35F8F043000F869
:1083B800033CFFF771FF01A8FCF7C4FA05B030BD14
:1083C800002211464068FFF7CBBC002211464068E6
:1083D800FFF7D6BC00224068FFF7CABC002281F034
:1083E80001014068FFF7B4BC00231A4619464068EB
:1083F800FFF7A6BC00231A4619464068FFF798BC49
:10840800002211464068FFF78BBC002211464068E5
:10841800FFF776BC002202214068FFF779BC0023F1
:108428001A464068FFF764BC024B03225A60024AAE
:108438001A60704774E303208CBC0D007047F8B5D0
:10844800064615460C468F18BC4206D0336814F809
:10845800011B9B6830469847F6E72846F8BD00227E
:10846800007CFFF791BA0021007CFFF795BA002144
:10847800007CFFF799BA0021007CFFF79DBA002124
:10848800007CFFF7A1BA10B51421044601F065FA83
:10849800204610BD10B504464FF47A730846A36011
:1084A8000021044B207461602360FFF79DFA204689
:1084B80010BD00BFC0BC0D0000231A461946007C41
:1084C800FFF742BA13B50024007C0094FFF744FA82
:1084D800C0B202B010BD0123FFF7F4BF0022007C38
:1084E800FFF742BA0022007CFFF746BA0121FFF7E6
:1084F800F9BF0021007CFFF76FBA704710B518214B
:10850800044601F02AFA204610BDF0B5037D062B7B
:108518008DB00E4600F104074FF0000402D000F1C0
:10852800080518E00CAD394605F8304D2F232A46CA
:108538000A20FFF769FA284602F005F9336802466F
:10854800DB682946304698470FE024B12E21304693
:1085580000F0ACF9044415F8011D0A22304600F079
:10856800EFF9BD420444F0D120460DB0F0BD000043
:1085780010B5054B0446112240F8043B002102F0D7
:1085880084F8204610BD00BFE8BC0D000346074A2A
:1085980010B543F8042B01F1100251F8044B43F8CD
:1085A800044B9142F9D10A781A7010BDE8BC0D004D
:1085B800037D042B01D1406808E0062B0AD14368EB
:1085C80053B1836843B1C36833B10069003018BF41
:1085D80001207047002070471846704710B59DF875
:1085E800084044EA032343EA024242EA01610423C1
:1085F8004160037510BD000037B5044D05609DF856
:1086080018500095FFF7EAFF03B030BDE8BC0D0035
:1086180037B50D788B784A78C97800912946FFF7E5
:10862800DDFF03B030BD0000014B024A1A607047FD
:108638007CE30320A4BD0D00002211464068FFF72B
:108648008FBB002211464068FFF79ABB00224068A2
:10865800FFF78EBB002281F001014068FFF778BB6D
:1086680000231A4619464068FFF76ABB00231A46DA
:1086780019464068FFF75CBB002211464068FFF7C7
:108688004FBB002211464068FFF73ABB0022022187
:108698004068FFF73DBB00231A464068FFF728BB38
:1086A80010B103685B6818477047000038B50C4B79
:1086B80003600446D0F8CC0108B1FBF7ECFCD4F811
:1086C800C45135B12846FBF780FD0421284601F046
:1086D80044F9A06808B1FFF7E3FF204638BD00BFA2
:1086E800D8BD0D0038B50D4C0D4B23600025022375
:1086F80004F5E4706360A560C4F8C451C4F8C851B7
:10870800FFF79AF8074BC4F8CC5123602046064A75
:108718000649BDE8384001F01BB900BF80E30320DB
:108728000CBE0D00D8BD0D003CDC0320B5860D0045
:1087380000231A464068FFF7DBBA0022022140688E
:10874800FFF7E6BA002211464068FFF7D9BA0022BF
:1087580011464068FFF7E4BA00231A4619464068F4
:10876800FFF7E6BA00231A4619464068FFF7E8BA49
:10877800002281F001014068FFF7EABA0022406850
:10878800FFF7F6BA002211464068FFF7F9BA00224F
:1087980011464068FFF7E4BA2DE9F043002495B08C
:1087A80016460D460746FFF7E3FE214620220CA891
:1087B800009401F06AFF40230C9321466B460CAAF3
:1087C8003046FFF741F90446002844D1024601210A
:1087D8006868FFF7A5FA0221804622466868FFF715
:1087E8009FFA009E81462146002E34D0002932D1BE
:1087F8007368022B02D00A2B09D02AE0B8F1000FC7
:1088080027D0716938460431FFF702FF20E0B9F13B
:10881800000F1ED07469112201A801F036FF06234B
:108828008DF8143001AD04F108031834186859683C
:108838002A4603C20833A3421546F7D101A906A860
:1088480007ADFFF7A3FE0FCD3C1D0FC42B682370A7
:108858000121F669C8E70098FFF7EEF8384615B029
:10886800BDE8F083024B034A1A6000225A60704741
:1088780050E503200CBE0D00F8B506460D468F18CE
:108888000024BD420CD0336815F8011B9B683046A4
:108898009847002801DB0444F3E7002C08BF04468E
:1088A8002046F8BD08B5FEF737FB08BD03689B688E
:1088B800184708B5FEF730FB08BD38B50D21054649
:1088C800FFF7F4FF0A2104462846FFF7EFFF20448C
:1088D80038BD38B50546FEF71FFB04462846FFF7A6
:1088E800ECFF204438BD30B58BB00B4600218DF825
:1088F8002410012A98BF0A220DF12304B3FBF2F5D4
:1089080005FB123303F0FF03092B94BF30333733D1
:10891800DBB2214604F801392B46002DEED1FEF7D3
:10892800FBFA0BB030BD10B42AB903685DF8044BEC
:108938009B68C9B21847D2B25DF8044BFFF7D3BFA2
:10894800FFF7F1BF2DE9F04107460E4615462AB953
:108958000368C9B29B68BDE8F04118470A2A02D1EA
:10896800002901DA04E0D2B2BDE8F041FFF7BBBF4D
:108978002D21FFF79BFF2A46044671423846FFF730
:10898800B2FF2044BDE8F081FFF7DCBF38B50546EB
:10899800FFF7D8FF04462846FFF78FFF204438BD6D
:1089A8000CB42DE9F04387B000AF07F13804054651
:1089B80054F8049B3C600E4623464A461421381D51
:1089C800FFF71EFA132805D8391D2846FEF7A4FA22
:1089D800044613E000F1080323F00703E846ADEB73
:1089E800030D411C23464A4668463C60FFF708FAD7
:1089F80069462846FEF790FA0446C5461EB1284641
:108A0800FFF75BFF044420461C37BD46BDE8F04332
:108A180002B0704710B50446FBF7BBFB204610BDFB
:108A28000348044A04490023836000F091BF00BF53
:108A380058E503203CDC03201D8A0D00704710B563
:108A48001021044600F089FF204610BD70B5084B80
:108A58000360044600250E4640F80C5FFEF7E4FE6E
:108A680030462671FFF730F8A560204670BD00BF7C
:108A780040BE0D000079FFF72FB810B50446FEF789
:108A880003FFE060236820465B699847002808DAFE
:108A9800FEF7FAFEE368C01AA3689842F2D34FF0D3
:108AA800FF3010BD2DE9F04180460D468F180C4669
:108AB800BC42A4EB050607D04046FFF7DEFF0028BE
:108AC80002DB04F8010BF3E73046BDE8F08110B58E
:108AD80004460068FFF764F9204610BD10B5044647
:108AE800006808B1FFF75CF900232360A3606360A6
:108AF80010BD38B504460D4600680131FFF758F936
:108B080010B184E82100012038BD10B5036804467F
:108B180013B143688B4207D22046FFF7EAFF20B122
:108B2800A3680BB922681370012010BD70B50E46FA
:108B3800114604461546FFF7E8FF18B92046FFF727
:108B4800CDFF09E02A463146A560206801F092FD74
:108B58002268A3680021D154204670BD38B500238F
:108B6800044603604360836003730D4639B10846C9
:108B780001F0E9FD294602462046FFF7D7FF2046C7
:108B880038BD38B5054600680C4660B16A688B6820
:108B98009A4206D3096801F0B3FDA368AB600023CD
:108BA8000AE0FFF7FDF823682B6063686B60A36831
:108BB800AB60002323606360A36038BD884210B5B2
:108BC8000B46044607D0096819B19A68FFF7AEFF4B
:108BD80001E0FFF783FF204610BD10B500230446CF
:108BE8000360436083600373FFF7E8FF204610BD0E
:108BF800884210B5044601D0FFF7C3FF204610BDD8
:108C080038B505460C4641B1084601F09CFD2146A1
:108C180002462846FFF78AFF01E0FFF75FFF284674
:108C280038BD70B504460E4609B9002070BD6AB15A
:108C38008368D5182946FFF768FF0028F5D0206813
:108C4800A3683146184401F05BFDA560012070BDA2
:108C580007B500238DF80410012201A98DF805300D
:108C6800FFF7DFFF03B05DF804FB10B58A680968F9
:108C78000446FFF7D6FF10B92046FFF72FFF20461E
:108C880010BD38B504460D4641B1084601F05BFDFC
:108C9800294602462046FFF7C4FF10B92046FFF7D1
:108CA8001DFF204638BD08B582680B4612B919B9B0
:108CB800012008BD11B90368187802E0006801F0C6
:108CC80015FDB0FA80F0400908BD00000EB4FFB5EC
:108CD80009AC054654F8047B019423463A4605211D
:108CE80002A8FFF78DF80C4906462846FFF736FF1D
:108CF80031462846FFF709FF286830B123463A462F
:108D0800711C0194FFF77CF8A860284604B0BDE800
:108D1800F04003B0704700BF08BD0D00044B0020B1
:108D28004FF6FF72187058809A80FEF76DBF00BF2B
:108D380068E5032037B502AC036804F8011DDD6B54
:108D480001224FF0FF332146A84703B030BD10B4CD
:108D58000368DC6B4FF0FF33A4465DF8044B6047B3
:108D680037B502AC036804F8011DDD6B21461346D4
:108D78000122A84703B030BD704738B543691A6867
:108D8800002A044605DAB3F88620B3F884309A42FC
:108D980001D001250BE003681B699847002814BF20
:108DA8000125002503D123682046DB6A9847284619
:108DB80038BD43691868C043C00F7047704700202A
:108DC800704710B51421044600F0C7FD204610BDB9
:108DD800FBF75FB92DE9F0439846036893B0DB6A67
:108DE8000C4606461746984712AB002543F8485DDF
:108DF8002A4629462046FEF727FE00283ADB009B34
:108E0800002B39D05B69002B36D006A8FFF7B0FBE2
:108E1800009B5C696378022B01D1211D13E00A2BAA
:108E280014D11122294601A801F02FFCA36833BBF5
:108E3800E36823BB4FF6FF702569FEF7EDFD854219
:108E48001DD104F1140106A8FFF7E2FB06A8FFF7FD
:108E5800AFFB88B1336807ADD3F82090184B0C935B
:108E68000FCD0DAC0FC42B6823703A4643460CA9AE
:108E78003046C84704461CE04FF0FF3419E004F1BF
:108E8800080301AD1834186859682A4603C2083324
:108E9800A3421546F7D1062301A90CA80DAD8DF8FC
:108EA8001430FFF773FB0FCD07AC0FC42B6823708A
:108EB800CCE70098FEF7C0FD204613B0BDE8F0836C
:108EC800E8BC0D007FB5164600224260029203926C
:108ED8005A1C04460D4608D04FF47A72B3FBF2F1DF
:108EE800029102FB11314A430392606908230093FF
:108EF80041F205026B4440F6FF710068FEF7B4FDCD
:108F0800002808DB60690023324629460068FEF71E
:108F1800CBFD002804DAFEF78BFF036863600020AE
:108F280004B070BD10B5036804469B689847A368F1
:108F3800013BA3602BB923682046DB68BDE81040DD
:108F4800184710BD70B504464D69054B44F8043BFD
:108F58008C3506460FCD0FC42B682370304670BD84
:108F6800E8BC0D0010B54369B3F88620B3F8843027
:108F78009A42044605D06269B2F8843013441879DD
:108F880010BD03681B6998470028F4D14FF0FF30E3
:108F980010BD10B54369B3F88620B3F884309A42FF
:108FA800044608D06269B2F88430591C1344A2F808
:108FB8008410187910BD03681B6998470028F1D1FF
:108FC8004FF0FF3010BD000010B5064B036004469B
:108FD800806928B14368013B43600BB9FFF7A2FFE2
:108FE800204610BD6CBE0D0010B50446FFF7ECFF1F
:108FF80020461C2100F0B1FC204610BDF8B543699D
:109008001746B3F88620B3F884309A4205460E46D0
:1090180006D103681B69984710B94FF0FF3414E074
:109028006969B1F88430B1F88640E41ABC4228BFB7
:109038003C46194422460431304601F01BFB6A695C
:10904800B2F884302344A2F884302046F8BD42693F
:109058000023A2F884304269A2F8863070472DE9CF
:10906800F041984603680D468AB0DB6A0646174603
:1090780098472B7D7469042B0CBF02200A20062216
:109088000121FEF719FD206073691C68002C5BDB69
:109098003046FFF7DCFFB8F1000F17D0002303A913
:1090A8005FFA88F00393ADF81030FEF7A5FC0028AE
:1090B80049DB70690623009341F20B0203AB40F6CB
:1090C800FF710068FEF7D0FC00283CDB1C24224618
:1090D800002103A801F0D9FA2B7D8DF80C40042B50
:1090E8000CD1022338468DF80D30FEF79DFCADF803
:1090F8000E006868FEF790FC049013E00A233846D7
:109108008DF80D30FEF790FC05ACADF80E002B1D68
:1091180005F1140718685968224603C20833BB4290
:109128001446F7D173691C2203A91868FEF7ACFC32
:10913800002808DB2C1D0FCC76698C360FC62368F7
:109148003370012404E0044633683046DB6A9847EC
:1091580020460AB0BDE8F08110B543690446186896
:10916800002801DBFEF788FC63694FF0FF321A60C4
:109178006069112200218C3001F087FA2046BDE891
:109188001040FFF764BF000030B54269B2F886307E
:109198008BB004461BB1B2F884209A4240D0636970
:1091A800186800283FDBB3F886507F2D3BD8191D7F
:1091B800C5F1800208232944FEF76EFC00280CDD67
:1091C8006369B3F886200AB9A3F884206269B2F803
:1091D80086301844A2F8860025E0FEF729FE0368C9
:1091E8000B2B20D0FEF724FE03680B2B1BD020236B
:1091F800002502930395FEF71BFE036801930E4BAF
:10920800009302AA2B460D493220FEF7EDFC636954
:109218001868FEF731FC63694FF0FF321A6002E00C
:10922800FFF715FFBBE76269B2F88630B2F8840031
:10923800181A0BB030BD00BFB7BE0D00B0BE0D0090
:1092480010B5002304460160A0F88430A0F88630E9
:109258008830FFF78DF9204610BD00004FF47A7270
:1092680070B500238260144A4360026043618361E1
:109278000446A0200E46FAF70AFF054610B131460B
:10928800FFF7DEFF1420FAF702FF034628B1012298
:1092980042608260094A02600561A0696561A36154
:1092A80028B14368013B43600BB9FFF73BFE2046FA
:1092B800FFF7CDFE204670BD6CBE0D0050BE0D0000
:1092C80010B54FF0FF310446FFF7C8FF204610BD28
:1092D80010B504460068002801DBFEF7CDFB2046E8
:1092E80010BD10B504692046FFF7F2FF24B12046EF
:1092F800BDE81040FAF7CDBE10BD0000F0B5144B24
:10930800144F1E68144B064418683B6806449E4276
:109318008BB01BD00AA801AD40F8286D01F0B2F857
:10932800436903F26C73436104460FCC0FC50FCC3D
:109338000FC5D4F800E0C5F800E001AD0FCD074C2B
:109348000FC40FCD0FC43E60C4F800E00BB0F0BDF1
:10935800A0E503209CE5032098E5032070E50320A1
:1093680008B50020FEF7B4FC28B1FEF799FC80F0A0
:109378000100C0B208BD012008BD000008B5FFF714
:10938800BDFF014B986808BD70E5032008B5FFF7DD
:10939800B5FF014B586808BD70E5032010B50020E3
:1093A800FEF782FA044668B9FEF726FC01280BD1BD
:1093B8002046FEF751FC38B9FFF7D2FF30B9FEF767
:1093C80067FCF9E7012010BD002010BDFFF7C8FFBA
:1093D8000020FEF769FA003018BF012010BD08B55B
:1093E800FFF7DCFFBDE80840FEF756BA024B1A68E3
:1093F800024B1A60704700BF84DB032094E503200A
:10940800F8B585B2044628460E46174600F0C0F95E
:1094180060B102212846FEF757FA022806D13A46DB
:1094280031462046BDE8F840FEF716BBF8BD704748
:109438004174704708B5007CFEF78EFB20EAE070A7
:1094480008BD08B5007CFEF75FFB20EAE07008BDA8
:1094580008B5007CFEF768FB30EA200028BF4FF013
:10946800FF3008BD08B5007CFEF756FB30EA200047
:1094780028BF4FF0FF3008BD007CFEF75DBB10B57C
:109488001421044600F069FA204610BD70B5457CE9
:1094980004460E4625B9007CFEF75EFB002805DD74
:1094A8003146207CBDE87040FEF726BB284670BDDB
:1094B80010B5044608461146002262604FF47A72DD
:1094C800A260054A22600122207462741A46FEF7DF
:1094D8000BFB204610BD00BFF8BE0D00007CFEF758
:1094E80033BB000038B50C4D296811F0010411D1C7
:1094F8002846FAF7DDFD68B1084A094B09482146B4
:10950800FFF7D6FF2846FAF7D8FD074A0749054866
:1095180000F01EFA034838BD3CE6032040E603206D
:10952800B8E50320A4E503203CDC032037940D00B4
:1095380041747047704708B50021007CFEF734FB82
:1095480030EA200028BF4FF0FF3008BD08B50121E0
:10955800007CFEF729FB30EA200028BF4FF0FF30DF
:1095680008BD08B5007CFEF717FB20EAE07008BDCF
:1095780008B5007CFEF708FB20EAE07008BD007C17
:10958800FEF722BB10B51421044600F0E6F9204688
:1095980010BD38B50446007C0D46FEF7FDFA0028DC
:1095A80001DC607C28B12946207CFEF705FB20EA17
:1095B800E07038BD10B50446002363604FF47A7339
:1095C800A360054B23600123084621746374114688
:1095D800FEF7CAFA204610BD28BF0D000022007C05
:1095E800FEF7CABA10B514220446002101F04DF85E
:1095F800204610BD30B50E4D87B001A8FFF7F2FF29
:10960800296811F0010410D12846FAF751FD60B11C
:1096180001AA21460748FFF7CDFF2846FAF74DFD76
:10962800054A0649034800F093F9024807B030BDDF
:10963800C4E60320C8E603203CDC03203D950D006A
:10964800002211464068FEF76BBB002211464068B5
:10965800FEF786BB002211464068FEF791BB002248
:109668004068FEF785BB002281F001014068FEF7E3
:109678006FBB00231A4619464068FEF761BB0023FA
:109688001A4619464068FEF753BB00221146406847
:10969800FEF736BB002202214068FEF739BB0023E3
:1096A8001A464068FEF724BB024B04225A60024A5D
:1096B8001A607047DCE6032058BF0D0008B50C4B54
:1096C80033B1FFF797FF03681B699847002809DC47
:1096D800084B63B1FFF706FF03681B69984700282A
:1096E80003DC08BDAFF30080F2E7AFF3008008BDEC
:1096F800000000000000000008B5FFF7DFFFFEF7DC
:10970800C3F8014B186008BDE8E6032007B500233D
:1097180000931A466FF07701FEF7B0FA03B05DF8D0
:1097280004FB000007B543880A2B08D0502B09D149
:10973800094B1B683BB103B05DF804EB1847FFF712
:10974800E5FF06E0002300931A466FF07701FEF765
:1097580095FA03B05DF804FBE4E6032010B5FEF7C4
:109768007BF8044600F09AFF074B13B12046AFF38D
:10977800008000210448FEF7B3FA00210348BDE841
:109788001040FEF771BA00BF000000002D970D00D1
:1097980010B504460F48FFF76DF928B1A4F10B0383
:1097A800022B01D8002010BD00F090F8FEF7A1FEB2
:1097B80008B1012CF6D9FFF795FEFFF78FFE18B117
:1097C800A4F10903012BEDD9232C8CBF0020012023
:1097D80010BD00BF04E70320232838B504460D4612
:1097E8000AD8FF2908D0FFF7D3FF28B12946204619
:1097F800BDE83840FEF770B838BD38B504460D46A8
:10980800FEF772F8FF2810D0062804D84D2323FA53
:1098180000F0C30709D42046FFF7BAFF28B129464C
:109828002046BDE83840FEF767B838BD10B5044695
:10983800FEF75AF80438C0B2012808D92046FFF7C5
:10984800A7FF20B12046BDE81040FEF75DB8002014
:1098580010BD0D2810B504469CBF0E34A4B2204696
:10986800FFF796FF50B103212046FEF72DF8032895
:1098780004D12046BDE81040FEF756B8002010BDC0
:1098880038B504460D46FFF783FFF0B104212046A2
:10989800FEF71AF8042805D1A9B22046BDE83840D9
:1098A800FEF73AB802212046FEF70EF802280CD13E
:1098B8002046FEF719F8012801D0042805D12946C9
:1098C8002046BDE83840FEF737B838BD38B50B4DEF
:1098D800296811F001040FD12846FAF7E9FB58B1BD
:1098E80021460748FEF7D6FD2846FAF7E6FB054A63
:1098F8000549034800F02CF8014838BDECE6032080
:10990800F0E603203CDC032045840D0070B50C4CC8
:109918000C4E0D4D00212046FFF798F820460B4CC1
:109928003246294600F014F801212046FFF78EF848
:10993800324629462046BDE8704000F009B800BF0D
:1099480004E703203CDC0320458A0D0014E70320CC
:109958000B460146184600F087BDFAF79ABB00008F
:10996800024B1868BFF35F8F704700BF24E70320DE
:1099780010B5002814BF044601242046FEF708FA53
:1099880020B9FFF7EDFF08B18047F6E710BD08B52D
:10999800FEF73EFA244B1A68D0075CBF01221A6012
:1099A800224B1A68D1075CBF01221A60204B1A6843
:1099B800D2075CBF01221A601E4B1A68D0075CBF31
:1099C80001221A601C4B1A68D1075CBF01221A6079
:1099D8001A4B1A68D2075CBF01221A60184B1A6822
:1099E800D0075CBF01221A60164B1A68D1075CBF0A
:1099F80001221A60144B1A68D2075CBF01221A6050
:109A0800124B1A68D0075CBF01221A60104B1A6803
:109A1800D1075CBF01221A600E4B1A68D2075CBFDF
:109A280001221A60704700BF54E7032050E7032063
:109A38004CE7032048E7032044E7032040E70320DE
:109A48003CE7032038E7032034E7032030E703200E
:109A58002CE7032028E70320184B1A68D1075CBFBE
:109A680001221A60164B1A68D2075CBF01221A60DD
:109A7800144B1A68D0075CBF01221A60124B1A688F
:109A8800D1075CBF01221A60104B1A68D2075CBF6D
:109A980001221A600E4B1A68D0075CBF01221A60B7
:109AA8000C4B1A68D1075CBF01221A600A4B1A686E
:109AB800D2075CBF01221A60704700BF74E7032019
:109AC80070E703206CE7032068E7032064E70320BE
